:100000000C9434000C9449000C9449000C94490061
:100010000C9449000C9449000C9449000C9449003C
:100020000C9449000C9449000C9449000C9449002C
:100030000C9449000C9449000C9449000C9449001C
:100040000C9449000C9449000C9449000C9449000C
:100050000C9449000C9449000C9449000C944900FC
:100060000C9449000C94490011241FBECFEFD8E036
:10007000DEBFCDBF11E0A0E0B1E0E4E6F1E002C0F8
:1000800005900D92AA31B107D9F70E945C000C943B
:10009000B0000C94000094EA9093BC009091BC00D6
:1000A00097FFFCCF8093BB0084E88093BC008091D5
:1000B000BC0087FFFCCF08958091C10088618093C8
:1000C000C1008091C20086608093C20087E6809361
:1000D000C4001092C50084E08AB91092B90088E487
:1000E0008093B80014E804E984E0F82E98E1C92E62
:1000F00091E0D92E8AE990E00E944B001092BB005B
:100100001093BC008091BC0087FFFCCF8BE990E08E
:100110000E944B001093BC008091BC0087FFFCCF75
:100120008091BB000093BC009091BC0097FDFCCF78
:10013000833390F0FBB8CD2B61F4E0E0F1E08091E7
:10014000C00085FFFCCF81918093C600CE16DF06EC
:10015000B1F7C1E0D0E0CECF1BB8D0E0C0E0CACF4D
:04016000F894FFCF41
:100164005741524E494E472054454D502049532043
:0A0174004F5645522035300A0000B6
:00000001FF
